{
    "_format": "hh-sol-artifact-1",
    "contractName": "ReverseAuction",
    "sourceName": "contracts/reverse_auction.sol",
    "abi": [
        {
            "inputs": [
                {
                    "internalType": "uint256",
                    "name": "_maxBidAmount",
                    "type": "uint256"
                },
                {
                    "internalType": "uint256",
                    "name": "_numberOfWinners",
                    "type": "uint256"
                }
            ],
            "stateMutability": "payable",
            "type": "constructor"
        },
        {
            "inputs": [],
            "name": "auctionCreator",
            "outputs": [
                {
                    "internalType": "address",
                    "name": "",
                    "type": "address"
                }
            ],
            "stateMutability": "view",
            "type": "function"
        },
        {
            "inputs": [],
            "name": "auctionEnded",
            "outputs": [
                {
                    "internalType": "bool",
                    "name": "",
                    "type": "bool"
                }
            ],
            "stateMutability": "view",
            "type": "function"
        },
        {
            "inputs": [
                {
                    "internalType": "uint256",
                    "name": "",
                    "type": "uint256"
                }
            ],
            "name": "bids",
            "outputs": [
                {
                    "internalType": "address",
                    "name": "bidder",
                    "type": "address"
                },
                {
                    "internalType": "uint256",
                    "name": "amount",
                    "type": "uint256"
                }
            ],
            "stateMutability": "view",
            "type": "function"
        },
        {
            "inputs": [],
            "name": "claimReward",
            "outputs": [],
            "stateMutability": "nonpayable",
            "type": "function"
        },
        {
            "inputs": [],
            "name": "endAuction",
            "outputs": [],
            "stateMutability": "nonpayable",
            "type": "function"
        },
        {
            "inputs": [],
            "name": "getBids",
            "outputs": [
                {
                    "components": [
                        {
                            "internalType": "address",
                            "name": "bidder",
                            "type": "address"
                        },
                        {
                            "internalType": "uint256",
                            "name": "amount",
                            "type": "uint256"
                        }
                    ],
                    "internalType": "struct ReverseAuction.Bid[]",
                    "name": "",
                    "type": "tuple[]"
                }
            ],
            "stateMutability": "view",
            "type": "function"
        },
        {
            "inputs": [],
            "name": "maxBidAmount",
            "outputs": [
                {
                    "internalType": "uint256",
                    "name": "",
                    "type": "uint256"
                }
            ],
            "stateMutability": "view",
            "type": "function"
        },
        {
            "inputs": [],
            "name": "numberOfWinners",
            "outputs": [
                {
                    "internalType": "uint256",
                    "name": "",
                    "type": "uint256"
                }
            ],
            "stateMutability": "view",
            "type": "function"
        },
        {
            "inputs": [
                {
                    "internalType": "address",
                    "name": "",
                    "type": "address"
                }
            ],
            "name": "rewards",
            "outputs": [
                {
                    "internalType": "uint256",
                    "name": "",
                    "type": "uint256"
                }
            ],
            "stateMutability": "view",
            "type": "function"
        },
        {
            "inputs": [],
            "name": "submitBid",
            "outputs": [],
            "stateMutability": "payable",
            "type": "function"
        },
        {
            "inputs": [],
            "name": "totalLockedAmount",
            "outputs": [
                {
                    "internalType": "uint256",
                    "name": "",
                    "type": "uint256"
                }
            ],
            "stateMutability": "view",
            "type": "function"
        }
    ],
    "bytecode": "0x60806040526040516116ca3803806116ca8339818101604052810190610025919061018f565b60008211610068576040517f08c379a000000000000000000000000000000000000000000000000000000000815260040161005f90610252565b60405180910390fd5b600081116100ab576040517f08c379a00000000000000000000000000000000000000000000000000000000081526004016100a2906102e4565b60405180910390fd5b80826100b79190610333565b34146100f8576040517f08c379a00000000000000000000000000000000000000000000000000000000081526004016100ef906103c1565b60405180910390fd5b336000806101000a81548173ffffffffffffffffffffffffffffffffffffffff021916908373ffffffffffffffffffffffffffffffffffffffff16021790555081600181905550806002819055503460038190555050506103e1565b600080fd5b6000819050919050565b61016c81610159565b811461017757600080fd5b50565b60008151905061018981610163565b92915050565b600080604083850312156101a6576101a5610154565b5b60006101b48582860161017a565b92505060206101c58582860161017a565b9150509250929050565b600082825260208201905092915050565b7f4d6178696d756d2062696420616d6f756e74206d75737420626520677265617460008201527f6572207468616e207a65726f0000000000000000000000000000000000000000602082015250565b600061023c602c836101cf565b9150610247826101e0565b604082019050919050565b6000602082019050818103600083015261026b8161022f565b9050919050565b7f4e756d626572206f662077696e6e657273206d7573742062652067726561746560008201527f72207468616e207a65726f000000000000000000000000000000000000000000602082015250565b60006102ce602b836101cf565b91506102d982610272565b604082019050919050565b600060208201905081810360008301526102fd816102c1565b9050919050565b7f4e487b7100000000000000000000000000000000000000000000000000000000600052601160045260246000fd5b600061033e82610159565b915061034983610159565b925082820261035781610159565b9150828204841483151761036e5761036d610304565b5b5092915050565b7f496e73756666696369656e742066756e6473206c6f636b656400000000000000600082015250565b60006103ab6019836101cf565b91506103b682610375565b602082019050919050565b600060208201905081810360008301526103da8161039e565b9050919050565b6112da806103f06000396000f3fe60806040526004361061009c5760003560e01c80638643337411610064578063864333741461019d5780638acfaca9146101c8578063b81c78ec146101f3578063b88a802f1461021e578063c334b6b214610235578063fe67a54b1461023f5761009c565b806305a9f274146100a15780630700037d146100cc5780634423c5f1146101095780634c9981f614610147578063677f8c1414610172575b600080fd5b3480156100ad57600080fd5b506100b6610256565b6040516100c39190610bea565b60405180910390f35b3480156100d857600080fd5b506100f360048036038101906100ee9190610c68565b61025c565b6040516101009190610bea565b60405180910390f35b34801561011557600080fd5b50610130600480360381019061012b9190610cc1565b610274565b60405161013e929190610cfd565b60405180910390f35b34801561015357600080fd5b5061015c6102c8565b6040516101699190610bea565b60405180910390f35b34801561017e57600080fd5b506101876102ce565b6040516101949190610d26565b60405180910390f35b3480156101a957600080fd5b506101b26102f2565b6040516101bf9190610d5c565b60405180910390f35b3480156101d457600080fd5b506101dd610305565b6040516101ea9190610bea565b60405180910390f35b3480156101ff57600080fd5b5061020861030b565b6040516102159190610e73565b60405180910390f35b34801561022a57600080fd5b506102336103ca565b005b61023d61052f565b005b34801561024b57600080fd5b5061025461067b565b005b60035481565b60056020528060005260406000206000915090505481565b6004818154811061028457600080fd5b90600052602060002090600202016000915090508060000160009054906101000a900473ffffffffffffffffffffffffffffffffffffffff16908060010154905082565b60015481565b60008054906101000a900473ffffffffffffffffffffffffffffffffffffffff1681565b600660009054906101000a900460ff1681565b60025481565b60606004805480602002602001604051908101604052809291908181526020016000905b828210156103c157838290600052602060002090600202016040518060400160405290816000820160009054906101000a900473ffffffffffffffffffffffffffffffffffffffff1673ffffffffffffffffffffffffffffffffffffffff1673ffffffffffffffffffffffffffffffffffffffff1681526020016001820154815250508152602001906001019061032f565b50505050905090565b600660009054906101000a900460ff16610419576040517f08c379a000000000000000000000000000000000000000000000000000000000815260040161041090610ef2565b60405180910390fd5b6000600560003373ffffffffffffffffffffffffffffffffffffffff1673ffffffffffffffffffffffffffffffffffffffff168152602001908152602001600020549050600081116104a0576040517f08c379a000000000000000000000000000000000000000000000000000000000815260040161049790610f5e565b60405180910390fd5b6000600560003373ffffffffffffffffffffffffffffffffffffffff1673ffffffffffffffffffffffffffffffffffffffff168152602001908152602001600020819055503373ffffffffffffffffffffffffffffffffffffffff166108fc829081150290604051600060405180830381858888f1935050505015801561052b573d6000803e3d6000fd5b5050565b600660009054906101000a900460ff161561057f576040517f08c379a000000000000000000000000000000000000000000000000000000000815260040161057690610fca565b60405180910390fd5b60003411801561059157506001543411155b6105d0576040517f08c379a00000000000000000000000000000000000000000000000000000000081526004016105c790611036565b60405180910390fd5b600460405180604001604052803373ffffffffffffffffffffffffffffffffffffffff16815260200134815250908060018154018082558091505060019003906000526020600020906002020160009091909190915060008201518160000160006101000a81548173ffffffffffffffffffffffffffffffffffffffff021916908373ffffffffffffffffffffffffffffffffffffffff160217905550602082015181600101555050565b60008054906101000a900473ffffffffffffffffffffffffffffffffffffffff1673ffffffffffffffffffffffffffffffffffffffff163373ffffffffffffffffffffffffffffffffffffffff1614610709576040517f08c379a0000000000000000000000000000000000000000000000000000000008152600401610700906110c8565b60405180910390fd5b600660009054906101000a900460ff1615610759576040517f08c379a000000000000000000000000000000000000000000000000000000000815260040161075090611134565b60405180910390fd5b610761610970565b6000806004805490501161077657600061079e565b600460008154811061078b5761078a611154565b5b9060005260206000209060020201600101545b90506000805b600480549050811080156107b9575060025482105b156108cb576000600482815481106107d4576107d3611154565b5b90600052602060002090600202016040518060400160405290816000820160009054906101000a900473ffffffffffffffffffffffffffffffffffffffff1673ffffffffffffffffffffffffffffffffffffffff1673ffffffffffffffffffffffffffffffffffffffff16815260200160018201548152505090508360056000836000015173ffffffffffffffffffffffffffffffffffffffff1673ffffffffffffffffffffffffffffffffffffffff16815260200190815260200160002060008282546108a291906111b2565b9250508190555082806108b4906111e6565b9350505080806108c3906111e6565b9150506107a4565b50600081836108da919061122e565b6003546108e79190611270565b905060008054906101000a900473ffffffffffffffffffffffffffffffffffffffff1673ffffffffffffffffffffffffffffffffffffffff166108fc829081150290604051600060405180830381858888f1935050505015801561094f573d6000803e3d6000fd5b506001600660006101000a81548160ff021916908315150217905550505050565b60005b600480549050811015610bce57600060018261098f91906111b2565b90505b600480549050811015610bc057600481815481106109b3576109b2611154565b5b906000526020600020906002020160010154600483815481106109d9576109d8611154565b5b9060005260206000209060020201600101541115610bb357600060048381548110610a0757610a06611154565b5b90600052602060002090600202016040518060400160405290816000820160009054906101000a900473ffffffffffffffffffffffffffffffffffffffff1673ffffffffffffffffffffffffffffffffffffffff1673ffffffffffffffffffffffffffffffffffffffff168152602001600182015481525050905060048281548110610a9657610a95611154565b5b906000526020600020906002020160048481548110610ab857610ab7611154565b5b90600052602060002090600202016000820160009054906101000a900473ffffffffffffffffffffffffffffffffffffffff168160000160006101000a81548173ffffffffffffffffffffffffffffffffffffffff021916908373ffffffffffffffffffffffffffffffffffffffff160217905550600182015481600101559050508060048381548110610b4f57610b4e611154565b5b906000526020600020906002020160008201518160000160006101000a81548173ffffffffffffffffffffffffffffffffffffffff021916908373ffffffffffffffffffffffffffffffffffffffff16021790555060208201518160010155905050505b8080600101915050610992565b508080600101915050610973565b50565b6000819050919050565b610be481610bd1565b82525050565b6000602082019050610bff6000830184610bdb565b92915050565b600080fd5b600073ffffffffffffffffffffffffffffffffffffffff82169050919050565b6000610c3582610c0a565b9050919050565b610c4581610c2a565b8114610c5057600080fd5b50565b600081359050610c6281610c3c565b92915050565b600060208284031215610c7e57610c7d610c05565b5b6000610c8c84828501610c53565b91505092915050565b610c9e81610bd1565b8114610ca957600080fd5b50565b600081359050610cbb81610c95565b92915050565b600060208284031215610cd757610cd6610c05565b5b6000610ce584828501610cac565b91505092915050565b610cf781610c2a565b82525050565b6000604082019050610d126000830185610cee565b610d1f6020830184610bdb565b9392505050565b6000602082019050610d3b6000830184610cee565b92915050565b60008115159050919050565b610d5681610d41565b82525050565b6000602082019050610d716000830184610d4d565b92915050565b600081519050919050565b600082825260208201905092915050565b6000819050602082019050919050565b610dac81610c2a565b82525050565b610dbb81610bd1565b82525050565b604082016000820151610dd76000850182610da3565b506020820151610dea6020850182610db2565b50505050565b6000610dfc8383610dc1565b60408301905092915050565b6000602082019050919050565b6000610e2082610d77565b610e2a8185610d82565b9350610e3583610d93565b8060005b83811015610e66578151610e4d8882610df0565b9750610e5883610e08565b925050600181019050610e39565b5085935050505092915050565b60006020820190508181036000830152610e8d8184610e15565b905092915050565b600082825260208201905092915050565b7f41756374696f6e206973206e6f742079657420656e6465640000000000000000600082015250565b6000610edc601883610e95565b9150610ee782610ea6565b602082019050919050565b60006020820190508181036000830152610f0b81610ecf565b9050919050565b7f4e6f2072657761726420746f20636c61696d0000000000000000000000000000600082015250565b6000610f48601283610e95565b9150610f5382610f12565b602082019050919050565b60006020820190508181036000830152610f7781610f3b565b9050919050565b7f41756374696f6e2068617320656e646564000000000000000000000000000000600082015250565b6000610fb4601183610e95565b9150610fbf82610f7e565b602082019050919050565b60006020820190508181036000830152610fe381610fa7565b9050919050565b7f496e76616c69642062696420616d6f756e740000000000000000000000000000600082015250565b6000611020601283610e95565b915061102b82610fea565b602082019050919050565b6000602082019050818103600083015261104f81611013565b9050919050565b7f4f6e6c79207468652061756374696f6e2063726561746f722063616e20656e6460008201527f207468652061756374696f6e0000000000000000000000000000000000000000602082015250565b60006110b2602c83610e95565b91506110bd82611056565b604082019050919050565b600060208201905081810360008301526110e1816110a5565b9050919050565b7f41756374696f6e20616c726561647920656e6465640000000000000000000000600082015250565b600061111e601583610e95565b9150611129826110e8565b602082019050919050565b6000602082019050818103600083015261114d81611111565b9050919050565b7f4e487b7100000000000000000000000000000000000000000000000000000000600052603260045260246000fd5b7f4e487b7100000000000000000000000000000000000000000000000000000000600052601160045260246000fd5b60006111bd82610bd1565b91506111c883610bd1565b92508282019050808211156111e0576111df611183565b5b92915050565b60006111f182610bd1565b91507fffffffffffffffffffffffffffffffffffffffffffffffffffffffffffffffff820361122357611222611183565b5b600182019050919050565b600061123982610bd1565b915061124483610bd1565b925082820261125281610bd1565b9150828204841483151761126957611268611183565b5b5092915050565b600061127b82610bd1565b915061128683610bd1565b925082820390508181111561129e5761129d611183565b5b9291505056fea264697066735822122012f1f2650a943cb333fcab8f140895dac0b096aed079bd33d24102d42e11b6c064736f6c634300081c0033",
    "linkReferences": {},
    "deployedLinkReferences": {}
}